:020000040800F2
:1000000000000120353D0008E13A0008E93A000807
:10001000F13A0008F93A0008013B0008000000002E
:10002000000000000000000000000000093B000884
:10003000153B000800000000213B00082D3B000894
:100040007D3D00087D3D00087D3D00087D3D0008A8
:100050007D3D00087D3D00087D3D00087D3D000898
:100060007D3D00087D3D00087D3D00087D3D000888
:100070007D3D00087D3D00087D3D00087D3D000878
:100080007D3D00087D3D00087D3D00087D3D000868
:100090007D3D00087D3D00087D3D00087D3D000858
:1000A0007D3D00087D3D00087D3D00087D3D000848
:1000B0007D3D00087D3D00087D3D00087D3D000838
:1000C0007D3D00087D3D00087D3D00087D3D000828
:1000D0007D3D0008393B00087D3D00087D3D00085E
:1000E0007D3D00087D3D00087D3D00087D3D000808
:1000F0007D3D00087D3D00087D3D00087D3D0008F8
:100100007D3D00087D3D00087D3D00087D3D0008E7
:100110007D3D00087D3D00087D3D00087D3D0008D7
:100120007D3D00087D3D00087D3D00087D3D0008C7
:1001300000000000000000000000000000000000BF
:1001400000000000000000000000000000000000AF
:10015000000000000000000000000000000000009F
:10016000000000000000000000000000000000008F
:10017000000000000000000000000000000000007F
:10018000000000000000000000000000000000006F
:10019000000000000000000000000000000000005F
:1001A000000000000000000000000000000000004F
:1001B000000000000000000000000000000000003F
:1001C000000000000000000000000000000000002F
:1001D000000000000000000000000000000000001F
:0401E0005FF8E0F1F3
:1001E80010B5054C237833B9044B13B10448AFF369
:1001F80000800123237010BDD401002000000000FE
:10020800EC67000808B5034B1BB103490348AFF37B
:10021800008008BD00000000D8010020EC6700083D
:100228004FF0FF0C1CEAD0521EBF1CEAD15392EAD1
:100238000C0F93EA0C0F6FD01A4480EA010C4002AD
:1002480018BF5FEA41211ED04FF0006343EA501007
:1002580043EA5111A0FB01310CF00040B1F5000F49
:100268003EBF490041EAD3715B0040EA010062F1F8
:100278007F02FD2A1DD8B3F1004F40EBC25008BFE2
:1002880020F00100704790F0000F0CF0004C08BF00
:1002980049024CEA502040EA51207F3AC2BFD2F1CD
:1002A800FF0340EAC250704740F400004FF00003DB
:1002B800013A5DDC12F1190FDCBF00F00040704715
:1002C800C2F10002410021FA02F1C2F1200200FA53
:1002D80002FC5FEA310040F1000053EA4C0308BF1A
:1002E80020EADC70704792F0000F00F0004C02BF6B
:1002F800400010F4000F013AF9D040EA0C0093F0E6
:10030800000F01F0004C02BF490011F4000F013B3F
:10031800F9D041EA0C018FE70CEAD15392EA0C0FAD
:1003280018BF93EA0C0F0AD030F0004C18BF31F018
:10033800004CD8D180EA010000F00040704790F0EE
:10034800000F17BF90F0004F084691F0000F91F092
:10035800004F14D092EA0C0F01D142020FD193EA58
:100368000C0F03D14B0218BF084608D180EA0100E0
:1003780000F0004040F0FE4040F40000704740F0BC
:10038800FE4040F44000704781F0004102E000BFA9
:1003980083F0004330B54FEA41044FEA430594EA3D
:1003A800050F08BF90EA020F1FBF54EA000C55EA78
:1003B800020C7FEA645C7FEA655C00F0E2804FEA49
:1003C8005454D4EB5555B8BF6D420CDD2C4480EA2B
:1003D800020281EA030382EA000083EA010180EA5B
:1003E800020281EA0303362D88BF30BD11F0004FA9
:1003F8004FEA01314FF4801C4CEA113102D04042DF
:1004080061EB410113F0004F4FEA03334CEA133319
:1004180002D0524263EB430394EA050F00F0A78031
:10042800A4F10104D5F1200E0DDB02FA0EFC22FA2C
:1004380005F2801841F1000103FA0EF2801843FA20
:1004480005F359410EE0A5F120050EF1200E012A11
:1004580003FA0EFC28BF4CF0020C43FA05F3C0184F
:1004680051EBE37101F0004507D54FF0000EDCF1C8
:10047800000C7EEB00006EEB0101B1F5801F1BD371
:10048800B1F5001F0CD349085FEA30004FEA3C0C75
:1004980004F101044FEA445212F5800F80F09A806B
:1004A800BCF1004F08BF5FEA500C50F1000041EB6F
:1004B800045141EA050130BD5FEA4C0C404141EB73
:1004C8000101013C28BFB1F5801FE9D291F0000F6E
:1004D80004BF01460020B1FA81F308BF2033A3F11D
:1004E8000B03B3F120020CDA0C3208DD02F1140C14
:1004F800C2F10C0201FA0CF021FA02F10CE002F14F
:100508001402D8BFC2F1200C01FA02F120FA0CFC47
:10051800DCBF41EA0C019040E41AA2BF01EB045190
:10052800294330BD6FEA04041F3C1CDA0C340EDC8E
:1005380004F11404C4F1200220FA04F001FA02F3D1
:1005480040EA030021FA04F345EA030130BDC4F18F
:100558000C04C4F1200220FA02F001FA04F340EA84
:100568000300294630BD21FA04F0294630BD94F035
:10057800000F83F4801306BF81F480110134013D1C
:100588004EE77FEA645C18BF7FEA655C29D094EA8D
:10059800050F08BF90EA020F05D054EA000C04BF0B
:1005A8001946104630BD91EA030F1EBF00210020F6
:1005B80030BD5FEA545C05D14000494128BF41F095
:1005C800004130BD14F580043CBF01F5801130BDF9
:1005D80001F0004545F0FE4141F470014FF0000084
:1005E80030BD7FEA645C1ABF194610467FEA655C35
:1005F8001CBF0B46024650EA013406BF52EA0335D7
:1006080091EA030F41F4002130BD00BF90F0000FC4
:1006180004BF0021704730B54FF4806404F1320400
:100628004FF000054FF0000150E700BF90F0000FB9
:1006380004BF0021704730B54FF4806404F13204E0
:1006480010F0004548BF40424FF000013EE700BFB0
:1006580042004FEAE2014FEA31014FEA02701FBF40
:1006680012F07F4393F07F4F81F06051704732F072
:100678007F4208BF704793F07F4F04BF41F40021C9
:10068800704730B54FF4607401F0004521F0004127
:100698001CE700BF50EA010208BF704730B54FF0B1
:1006A80000050AE050EA010208BF704730B511F0B2
:1006B800004502D5404261EB41014FF4806404F1EA
:1006C80032045FEA915C3FF4D8AE4FF003025FEA70
:1006D800DC0C18BF03325FEADC0C18BF033202EBF4
:1006E800DC02C2F1200300FA03FC20FA02F001FA4E
:1006F80003FE40EA0E0021FA02F11444BDE600BFF1
:100708004FEA4102B2F1E04324BFB3F5001CDCF12B
:10071800FE5C0DD901F0004C4FEAC0024CEA507063
:10072800B2F1004F40EB830008BF20F00100704792
:1007380011F0804F21D113F13872BCBF01F0004095
:10074800704741F480114FEA5252C2F11802C2F1C7
:10075800200C10FA0CF320FA02F018BF40F0010048
:100768004FEAC1234FEAD32303FA0CFC40EA0C00FA
:1007780023FA02F34FEA4303CCE77FEA625307D137
:1007880050EA01331EBF4FF0FE4040F4400070476E
:1007980001F0004040F0FE4040F40000704700BF08
:1007A80080F0004002E000BF81F0004142001FBF1E
:1007B8005FEA410392EA030F7FEA226C7FEA236C27
:1007C8006AD04FEA1262D2EB1363C1BFD21841401C
:1007D80048404140B8BF5B42192B88BF704710F0B2
:1007E800004F40F4000020F07F4018BF404211F055
:1007F800004F41F4000121F07F4118BF494292EABD
:10080800030F3FD0A2F1010241FA03FC10EB0C00E8
:10081800C3F1200301FA03F100F0004302D5494275
:1008280060EB4000B0F5000F13D3B0F1807F06D322
:1008380040084FEA310102F10102FE2A51D2B1F11A
:10084800004F40EBC25008BF20F0010040EA03000F
:100858007047490040EB0000013A28BFB0F5000F8F
:10086800EDD2B0FA80FCACF1080CB2EB0C0200FA45
:100878000CF0AABF00EBC25052421843BCBFD04094
:100888001843704792F0000F81F4000106BF80F40E
:1008980000000132013BB5E74FEA41037FEA226CD1
:1008A80018BF7FEA236C21D092EA030F04D092F09C
:1008B800000F08BF0846704790EA010F1CBF0020D0
:1008C800704712F07F4F04D1400028BF40F000402D
:1008D800704712F100723CBF00F50000704700F04D
:1008E800004343F0FE4040F4000070477FEA226274
:1008F80016BF08467FEA23630146420206BF5FEA45
:10090800412390EA010F40F4800070474FF0000344
:1009180004E000BF10F0004348BF40425FEA000C0B
:1009280008BF704743F0964301464FF000001CE0B3
:1009380050EA010208BF70474FF000030AE000BF09
:1009480050EA010208BF704711F0004302D5404247
:1009580061EB41015FEA010C02BF844601460020B9
:1009680043F0B64308BFA3F18053A3F50003BCFAD4
:100978008CF2083AA3EBC25310DB01FA02FC634481
:1009880000FA02FCC2F12002BCF1004F20FA02F288
:1009980043EB020008BF20F00100704702F120027B
:1009A80001FA02FCC2F1200250EA4C0021FA02F2DC
:1009B80043EB020008BF20EADC707047034613F8D7
:1009C800012B002AFBD1181A0138704770B54FF077
:1009D800FF0C4CF4E06C1CEA11541DBF1CEA1355C3
:1009E80094EA0C0F95EA0C0F00F0DEF82C4481EA2B
:1009F800030621EA4C5123EA4C5350EA013518BF4B
:100A080052EA033541F4801143F4801338D0A0FB37
:100A180002CE4FF00005E1FB02E506F00042E0FBE4
:100A280003E54FF00006E1FB03569CF0000F18BFEA
:100A38004EF0010EA4F1FF04B6F5007F64F5407492
:100A480004D25FEA4E0E6D4146EB060642EAC62125
:100A580041EA55514FEAC52040EA5E504FEACE2E92
:100A6800B4F1FD0C88BFBCF5E06F1ED8BEF1004F95
:100A780008BF5FEA500E50F1000041EB045170BD11
:100A880006F0004646EA010140EA020081EA030155
:100A9800B4EB5C04C2BFD4EB0C0541EA045170BD51
:100AA80041F480114FF0000E013C00F3AB8014F1CB
:100AB800360FDEBF002001F0004170BDC4F1000414
:100AC800203C35DA0C341BDC04F11404C4F1200595
:100AD80000FA05F320FA04F001FA05F240EA0200F0
:100AE80001F0004221F0004110EBD37021FA04F626
:100AF80042EB06015EEA430E08BF20EAD37070BDE0
:100B0800C4F10C04C4F1200500FA04F320FA05F03E
:100B180001FA04F240EA020001F0004110EBD37040
:100B280041F100015EEA430E08BF20EAD37070BDB0
:100B3800C4F1200500FA05F24EEA020E20FA04F389
:100B480001FA05F243EA020321FA04F001F0004138
:100B580021FA04F220EA020000EBD3705EEA430EA9
:100B680008BF20EAD37070BD94F0000F0FD101F0D8
:100B78000046400041EB010111F4801F08BF013C11
:100B8800F7D041EA060195F0000F18BF704703F04F
:100B98000046520043EB030313F4801F08BF013DD6
:100BA800F7D043EA0603704794EA0C0F0CEA135592
:100BB80018BF95EA0C0F0CD050EA410618BF52EA4C
:100BC8004306D1D181EA030101F000414FF0000052
:100BD80070BD50EA410606BF1046194652EA430660
:100BE80019D094EA0C0F02D150EA013613D195EAD4
:100BF8000C0F05D152EA03361CBF104619460AD11C
:100C080081EA030101F0004141F0FE4141F4700125
:100C18004FF0000070BD41F0FE4141F4780170BD15
:100C280070B54FF0FF0C4CF4E06C1CEA11541DBF7A
:100C38001CEA135594EA0C0F95EA0C0F00F0A7F87C
:100C4800A4EB050481EA030E52EA03354FEA0131A9
:100C580000F088804FEA03334FF0805545EA1313BC
:100C680043EA12634FEA022245EA111545EA106584
:100C78004FEA00260EF000419D4208BF964244F11B
:100C8800FD0404F5407402D25B084FEA3202B61A3A
:100C980065EB03055B084FEA32024FF480104FF40E
:100CA800002CB6EB020E75EB030E22BFB61A754682
:100CB80040EA0C005B084FEA3202B6EB020E75EB15
:100CC800030E22BFB61A754640EA5C005B084FEA7D
:100CD8003202B6EB020E75EB030E22BFB61A75464A
:100CE80040EA9C005B084FEA3202B6EB020E75EB55
:100CF800030E22BFB61A754640EADC0055EA060E16
:100D080018D04FEA051545EA16754FEA06164FEA58
:100D1800C30343EA52734FEAC2025FEA1C1CC0D104
:100D280011F4801F0BD141EA00014FF000004FF091
:100D3800004CB6E711F4801F04BF01430020B4F152
:100D4800FD0C88BFBCF5E06F3FF6AFAEB5EB030C0A
:100D580004BFB6EB020C5FEA500C50F1000041EB07
:100D6800045170BD0EF0004E4EEA113114EB5C04D4
:100D7800C2BFD4EB0C0541EA045170BD41F48011A7
:100D88004FF0000E013C90E645EA060E8DE60CEAAF
:100D9800135594EA0C0F08BF95EA0C0F3FF43BAFCC
:100DA80094EA0C0F0AD150EA01347FF434AF95EA83
:100DB8000C0F7FF425AF104619462CE795EA0C0F67
:100DC80006D152EA03353FF4FDAE1046194622E734
:100DD80050EA410618BF52EA43067FF4C5AE50EA0E
:100DE80041047FF40DAF52EA43057FF4EBAE12E7FE
:100DF8004FF0FF3C06E000BF4FF0010C02E000BFDF
:100E08004FF0010C4DF804CD4FEA410C7FEA6C5CC1
:100E18004FEA430C18BF7FEA6C5C1BD001B050EA64
:100E2800410C0CBF52EA430C91EA030F02BF90EA4F
:100E3800020F0020704710F1000F91EA030F58BF0E
:100E4800994208BF90422CBFD8176FEAE37040F070
:100E5800010070474FEA410C7FEA6C5C02D150EA0E
:100E6800013C07D14FEA430C7FEA6C5CD6D152EAC9
:100E7800033CD3D05DF8040B704700BF844610468E
:100E880062468C461946634600E000BF01B5FFF78D
:100E9800B7FF002848BF10F1000F01BD4DF808ED5D
:100EA800FFF7F4FF0CBF012000205DF808FB00BF2E
:100EB8004DF808EDFFF7EAFF34BF012000205DF888
:100EC80008FB00BF4DF808EDFFF7E0FF94BF0120D5
:100ED80000205DF808FB00BF4DF808EDFFF7CEFFD6
:100EE80094BF012000205DF808FB00BF4DF808ED15
:100EF800FFF7C4FF34BF012000205DF808FB00BFE6
:100F08004A0011D212F5001211D20DD56FF4787380
:100F1800B3EB62520ED44FEAC12343F0004343EAD5
:100F2800505323FA02F070474FF00000704750EA20
:100F3800013002D14FF0FF3070474FF0000070478A
:100F480038B50022002304460D46FFF7B1FF28B943
:100F580020462946BDE8384000F00AB8204605F189
:100F6800004100F005F8404261EB410138BD00BF87
:100F7800D0B500220B4B06460F46FFF727FDFFF7BB
:100F8800BFFF0446FFF742FB0022074BFFF71EFD99
:100F980002460B4630463946FFF7FAF9FFF7B0FF2D
:100FA8002146D0BD0000F03D0000F041002310B5FF
:100FB8000446C0E90033C0E9043383608181436695
:100FC800C2818361194608225C3000F0F4F80D4BA9
:100FD800246263620C4BA3620C4BE3620C4B2363E9
:100FE8000C4B9C4206D003F16802944202D0D033E5
:100FF8009C4205D104F15800BDE8104000F04EB9FC
:1010080010BD00BF391100085B11000893110008DA
:10101800B7110008F0010020024A0349034800F014
:1010280069B800BF000000209915000810000020D2
:1010380041680C4B10B59942044601D000F0A8FA5B
:10104800A168094B994202D0204600F0A1FAE16854
:10105800064B994204D02046BDE8104000F098BAEB
:1010680010BD00BFF001002058020020C00200207F
:1010780010B50B4B0B4C0C4A20461A600421002279
:10108800FFF794FF04F1680001220921FFF78EFFA2
:1010980004F1D0000222BDE810401221FFF786BFFC
:1010A80028030020F001002021100008014800F06A
:1010B800F6B800BF31030020014800F0F1B800BFC6
:1010C8003103002010B50446FFF7F0FF236A1BB177
:1010D800BDE81040FFF7F0BF044B2362044B1B68C8
:1010E800002BF5D1FFF7C4FFF2E700BF3910000865
:1010F800280300202DE9F8430746884614460026B1
:10110800D4E90195B9F1010905D52468002CF7D176
:101118003046BDE8F883AB89012B07D9B5F90E3005
:10112800013303D029463846C04706436835E9E706
:1011380010B50C46B1F90E1000F068F80028ABBFE6
:10114800636DA3891B1823F48053ACBF6365A38127
:1011580010BD2DE9F0411F468B890546DB050C467D
:10116800164605D502230022B1F90E1000F03CF80E
:10117800A389324623F48053A38128463B46B4F919
:101188000E10BDE8F04100F053B810B50C46B1F9A7
:101198000E1000F029F8431CA38915BF606523F4DD
:1011A800805343F48053A38118BFA38110BDB1F9C4
:1011B8000E1000F009B803460244934200D170476C
:1011C80003F8011BF9E7000038B50023054D044674
:1011D80008462B6002F079FD431C02D12B6803B14D
:1011E800236038BD2C03002038B504460846114654
:1011F8000022054D2A601A4602F08BFD431C02D1DD
:101208002B6803B1236038BD2C03002038B5044691
:10121800084611460022054D2A601A4602F01CFDB8
:10122800431C02D12B6803B1236038BD2C03002076
:1012380038B50446084611460022054D2A601A466C
:1012480002F027FD431C02D12B6803B1236038BD8F
:101258002C03002070B500260C4D0D4C641BA41007
:10126800A64209D105F0BEFA00260A4D0A4C641BB5
:10127800A410A64205D170BD55F8043B9847013625
:10128800EEE755F8043B98470136F2E7B06C0008E2
:10129800B06C0008B06C0008B46C00087047704768
:1012A8007047000038B50546002940D051F8043C85
:1012B8000C1F002BB8BFE41800F0DEF81C4A1368B6
:1012C80033B9636014602846BDE8384000F0DAB8E6
:1012D800A34208D9206821188B4201BF19685B68AE
:1012E80009182160EDE71A465B680BB1A342FAD9E9
:1012F80011685018A0420BD120680144501883424D
:101308001160E0D118685B68084410605360DAE740
:1013180002D90C232B60D6E7206821188B4201BF25
:1013280019685B680918216063605460CBE738BDB1
:101338003803002070B50F4E0C463168054611B9C8
:1013480000F04EF930602146284600F049F9431C68
:1013580003D14FF0FF34204670BDC41C24F00304B1
:10136800A042F8D0211A284600F03AF90130F2D10B
:10137800EFE700BF340300202DE9F843CD1C25F02A
:10138800030508350C2D38BF0C25002D064601DB5A
:10139800A94204D90C2333600020BDE8F883DFF8A4
:1013A800D48000F069F8D8F800301C4644BB2946C0
:1013B8003046FFF7BFFF431C044658D1D8F8004019
:1013C8002746002F43D1002C4BD02368394630469E
:1013D80004EB030900F004F9814542D12168304645
:1013E8006D1A2946FFF7A6FF01303AD023682B442F
:1013F8002360D8F800305A6862BBC8F800700FE064
:101408002268521B20D40B2A17D96119A3422560E0
:1014180018BF5960636808BFC8F8001062514B6074
:10142800304600F02FF804F10B00231D20F00700D0
:10143800C21A1CBF1B1AA350AFE76268A3420CBFB5
:10144800C8F800205A60EBE723466468AEE73C46DC
:101458007F68B6E71A465B68A342FBD10023536056
:10146800DEE70C233046336000F00CF894E70560A3
:10147800D6E700BF380300200148FFF710BF00BFC0
:10148800300300200148FFF70BBF00BF30030020E6
:10149800B1F90C20F8B5160705460C4654D44B682C
:1014A800002B02DC0B6C002B48DDE66A002E45D0D1
:1014B800002312F480522F68216A2B6030D0626DAD
:1014C800A389590705D56368D21A636B0BB1236CDE
:1014D800D21A00232846E66A216AB047431CA3892A
:1014E80006D129681D292BD8284ACA40D60727D5EE
:1014F800002262602269D904226004D5421C01D10D
:101508002B6803B96065616B2F60B9B104F14403BE
:10151800994202D02846FFF7C5FE002363630DE019
:1015280001232846B0470246501CC9D12B68002B1E
:10153800C6D01D2B01D0162B1DD12F60002021E015
:1015480043F040031BB21AE00F69002FF6D093074F
:1015580018BF00230E6808BF4B69F61B0F608B602D
:10156800002EEBDD33463A462846216AD4F828C0D7
:10157800E047002807DCB4F90C3043F040034FF093
:10158800FF30A381F8BD0744361AE9E7010040207F
:1015980038B50B6905460C4613B90025284638BDF1
:1015A80018B1036A0BB9FFF78DFDB4F90C30002BA5
:1015B800F3D0626ED00704D4990502D4A06DFFF76A
:1015C8006EFE28462146FFF763FF636E0546DA077D
:1015D800E4D4A3899B05E1D4A06DFFF761FEDDE7A4
:1015E80038B50023054D044608462B6002F0DCFAA6
:1015F800431C02D12B6803B1236038BD2C030020A3
:1016080080B400AF00BFBD4680BC704780B582B0D3
:1016180000AF78607B68002B01D1012342E07B6832
:1016280093F84130DBB2002B06D17B68002283F8A7
:101638004020786801F0DAFF7B68242283F8412093
:101648007B681B68DA687B681B6822F40052DA60E2
:10165800786800F0B7FD7B681B681A697B681B68AF
:1016680022F490421A617B681B685A697B681B6880
:1016780022F02A025A617B681B68DA687B681B685B
:1016880042F40052DA607B6800225A647B682022A8
:1016980083F841207B68202283F842207B6800225F
:1016A8005A63002318460837BD4680BD80B58AB006
:1016B80002AFF860B9603B601346FB8000237B6192
:1016C800FB6893F84130DBB2202B75D1BB68002B47
:1016D80002D0FB88002B01D101236EE0FB680022B9
:1016E8005A64FB68212283F8412000F051FE78619A
:1016F800FB68FA889A84FB68FA88DA84FB689B6836
:10170800B3F5805F08D1FB681B69002B04D1002367
:10171800FB61BB68BB6103E0BB68FB610023BB6185
:101728002EE03B6800937B6900228021F86800F076
:101738001CFB0346002B05D0FB68202283F84120C0
:1017480003233AE0FB69002B0BD1BB691B881A46BF
:10175800FB681B68C2F308025A60BB690233BB61AD
:1017680007E0FB691A78FB681B685A60FB6901335C
:10177800FB61FB68DB8C9BB2013B9AB2FB68DA84A5
:10178800FB68DB8C9BB2002BCBD13B6800937B6959
:1017980000224021F86800F0E8FA0346002B05D043
:1017A800FB68202283F84120032306E0FB682022FF
:1017B80083F84120002300E0022318462037BD4665
:1017C80080BD80B584B000AFF860B9601346FB8077
:1017D800FB6893F84230DBB2202B12D1BB68002B98
:1017E80002D0FB88002B01D101230BE0FB6800220B
:1017F8001A63FB881A46B968F86800F00FFB0346BD
:1018080000E0022318461037BD4680BD80B5BAB047
:1018180000AF78607B681B681B68C7F8E4307B689A
:101828001B68DB68C7F8E0307B681B685B69C7F832
:10183800DC300023C7F8D8300023C7F8D430D7F8F5
:10184800E43003F00F03C7F8D830D7F8D830002BAE
:101858000FD1D7F8E43003F02003002B09D0D7F8D4
:10186800E03003F02003002B03D0786800F0ECFB95
:101878005BE2D7F8D830002B00F0DE80D7F8DC30F8
:1018880003F00103002B06D1D7F8E03003F490737E
:10189800002B00F0D180D7F8E43003F00103002BCF
:1018A8000BD0D7F8E03003F48073002B05D07B68A9
:1018B8005B6C43F001027B685A64D7F8E43003F0AC
:1018C8000403002B0BD0D7F8DC3003F00103002B06
:1018D80005D07B685B6C43F002027B685A64D7F8DA
:1018E800E43003F00203002B0BD0D7F8DC3003F010
:1018F8000103002B05D07B685B6C43F004027B6816
:101908005A64D7F8E43003F00803002B11D0D7F855
:10191800E03003F02003002B05D1D7F8DC3003F0CA
:101928000103002B05D07B685B6C43F008027B68E1
:101938005A647B685B6C002B00F0F281D7F8E430C6
:1019480003F02003002B08D0D7F8E03003F0200381
:10195800002B02D0786800F077FB7B681B685B6916
:1019680003F04003002B14BF01230023DBB2C7F8A8
:10197800D4307B685B6C03F00803002B03D1D7F8E5
:10198800D430002B4FD0786800F081FA7B681B6850
:101998005B6903F04003002B41D07B681B6814335C
:1019A800C7F89C30D7F89C3053E8003FC7F8983008
:1019B800D7F8983023F04003C7F8D0307B681B680D
:1019C8001433D7F8D020C7F8A820C7F8A430D7F820
:1019D800A410D7F8A82041E80023C7F8A030D7F80A
:1019E800A030002BD9D17B68DB6B002B13D07B6830
:1019F800DB6B7E4A5A637B68DB6B184601F006FB9B
:101A08000346002B16D07B68DB6B5B6B7A68D26B66
:101A1800104698470EE0786800F093F90AE0786875
:101A280000F08FF906E0786800F08BF97B680022F7
:101A38005A6475E100BF73E17B681B6B012B40F0B2
:101A48004F81D7F8E43003F01003002B00F04881F1
:101A5800D7F8E03003F01003002B00F04181002399
:101A6800BB607B681B681B68BB607B681B685B6826
:101A7800BB60BB687B681B685B6903F04003002B95
:101A880000F0B6807B68DB6B1B685B68A7F8BE302C
:101A9800B7F8BE30002B00F045817B689B8DB7F806
:101AA800BE209A4280F03E817B68B7F8BE20DA8576
:101AB8007B68DB6B9B69202B00F088807B681B6848
:101AC8000C33C7F88830D7F8883053E8003FC7F898
:101AD8008430D7F8843023F48073C7F8B8307B6833
:101AE8001B680C33D7F8B820C7F89420C7F8903093
:101AF800D7F89010D7F8942041E80023C7F88C3025
:101B0800D7F88C30002BD9D17B681B6814337B67DE
:101B18007B6F53E8003F3B673B6F23F00103C7F837
:101B2800B4307B681B681433D7F8B420C7F880201A
:101B3800FB67F96FD7F8802041E80023BB67BB6FCC
:101B4800002BE1D17B681B6814333B663B6E53E87E
:101B5800003FFB65FB6D23F04003C7F8B0307B689E
:101B68001B681433D7F8B020FA66BB66B96EFA6EF4
:101B780041E800237B667B6E002BE3D17B68202243
:101B880083F842207B6800221A637B681B680C3349
:101B9800FB64FB6C53E8003FBB64BB6C23F0100391
:101BA800C7F8AC307B681B680C33D7F8AC20BA6533
:101BB8007B65796DBA6D41E800233B653B6D002B71
:101BC800E3D17B68DB6B184601F0E5F97B680222FC
:101BD8005A637B689A8D7B68DB8D9BB2D31A9BB264
:101BE8001946786800F0B6F89CE000BF5B1F000853
:101BF8007B689A8D7B68DB8D9BB2D31AA7F8CE30B1
:101C08007B68DB8D9BB2002B00F08E80B7F8CE305E
:101C1800002B00F089807B681B680C33BB63BB6BAF
:101C280053E8003F7B637B6B23F49073C7F8C8309D
:101C38007B681B680C33D7F8C8207A643B64396C1E
:101C48007A6C41E80023FB63FB6B002BE3D17B68D4
:101C58001B6814337B627B6A53E8003F3B623B6A34
:101C680023F00103C7F8C4307B681B681433D7F826
:101C7800C4203A63FB62F96A3A6B41E80023BB620D
:101C8800BB6A002BE3D17B68202283F842207B6863
:101C980000221A637B681B680C333B613B6953E87D
:101CA800003FFB60FB6823F01003C7F8C0307B6877
:101CB8001B680C33D7F8C020FA61BB61B969FA69AF
:101CC80041E800237B617B69002BE3D17B6802221A
:101CD8005A63B7F8CE301946786800F03BF823E02D
:101CE800D7F8E43003F08003002B09D0D7F8E030B0
:101CF80003F08003002B03D0786800F03EF914E06D
:101D0800D7F8E43003F04003002B0ED0D7F8E030CA
:101D180003F04003002B08D0786800F07DF904E058
:101D280000BF02E000BF00E000BFE837BD4680BD4D
:101D380080B483B000AF786000BF0C37BD4680BC6C
:101D4800704780B483B000AF786000BF0C37BD46E1
:101D580080BC704780B483B000AF78600B467B804E
:101D680000BF0C37BD4680BC704780B586B000AF59
:101D7800F860B9603B601346FB713BE03B6AB3F126
:101D8800FF3F37D000F004FB02463B68D31A3A6A9B
:101D98009A4202D33B6A002B01D103233AE0FB6845
:101DA8001B68DB6803F00403002B23D0BB68802B7F
:101DB80020D0BB68402B1DD0FB681B681B6803F054
:101DC8000803082B16D100237B61FB681B681B687E
:101DD8007B61FB681B685B687B617B69F86800F066
:101DE80056F8FB6808225A64FB68002283F84020F2
:101DF80001230FE0FB681B681A68BB681340BA68C8
:101E08009A420CBF01230023DBB21A46FB799A429F
:101E1800B4D0002318461837BD4680BD80B485B0BD
:101E280000AFF860B9601346FB80FB68BA689A6235
:101E3800FB68FA889A85FB68FA88DA85FB680022CD
:101E48005A64FB68222283F84220FB681B69002B36
:101E580007D0FB681B68DA68FB681B6842F480726D
:101E6800DA60FB681B685A69FB681B6842F001026C
:101E78005A61FB681B68DA68FB681B6842F020023D
:101E8800DA60002318461437BD4680BC704780B41A
:101E980095B000AF78607B681B680C337B637B6B05
:101EA80053E8003F3B633B6B23F49073FB647B6810
:101EB8001B680C33FA6C3A64FB63F96B3A6C41E8C3
:101EC8000023BB63BB6B002BE5D17B681B68143315
:101ED8003B623B6A53E8003FFB61FB6923F0010367
:101EE800BB647B681B681433BA6CFA62BB62B96A5C
:101EF800FA6A41E800237B627B6A002BE5D17B68A4
:101F08001B6B012B19D17B681B680C33FB60FB68CA
:101F180053E8003FBB60BB6823F010037B647B6819
:101F28001B680C337A6CBA617B617969BA6941E8DC
:101F380000233B613B69002BE5D17B68202283F8B5
:101F480042207B6800221A6300BF5437BD4680BC1C
:101F5800704780B584B000AF78607B685B6AFB60CF
:101F6800FB680022DA85FB680022DA84F868FFF74C
:101F7800E8FE00BF1037BD4680BD80B485B000AF15
:101F880078607B6893F84130DBB2212B3ED17B68C7
:101F98009B68B3F5805F14D17B681B69002B10D157
:101FA8007B681B6AFB60FB681B881A467B681B689A
:101FB800C2F308025A607B681B6A9A1C7B681A6223
:101FC80008E07B681B6A591C7A6811621A787B687A
:101FD8001B685A607B68DB8C9BB2013B9BB27A68BA
:101FE8001946D184002B0FD17B681B68DA687B689F
:101FF8001B6822F08002DA607B681B68DA687B68FD
:102008001B6842F04002DA60002300E00223184611
:102018001437BD4680BC704780B582B000AF786089
:102028007B681B68DA687B681B6822F04002DA600C
:102038007B68202283F841207868FFF779FE002327
:1020480018460837BD4680BD80B58CB000AF7860B3
:102058007B6893F84230DBB2222B40F0AE807B687D
:102068009B68B3F5805F17D17B681B69002B13D180
:102078000023FB627B689B6ABB627B681B685B68AA
:102088009BB2C3F308039AB2BB6A1A807B689B6A47
:102098009A1C7B689A6226E07B689B6AFB62002335
:1020A800BB627B689B68B3F5805F07D07B689B68E1
:1020B800002B0AD17B681B69002B06D17B681B6843
:1020C8005B68DAB2FB6A1A7008E07B681B685B68B9
:1020D800DBB203F07F03DAB2FB6A1A707B689B6A93
:1020E8005A1C7B689A627B68DB8D9BB2013B9BB272
:1020F8007A681946D185002B5DD17B681B68DA6840
:102108007B681B6822F02002DA607B681B68DA684B
:102118007B681B6822F48072DA607B681B685A69E6
:102128007B681B6822F001025A617B68202283F8D1
:1021380042207B6800225A637B681B6B012B35D1D8
:102148007B6800221A637B681B680C337B617B69A0
:1021580053E8003F3B613B6923F010037B627B68D7
:102168001B680C337A6A3A62FB61F9693A6A41E89A
:102178000023BB61BB69002BE5D17B681B681B682A
:1021880003F01003102B0AD10023FB607B681B6847
:102198001B68FB607B681B685B68FB60FB687B688F
:1021A8009B8D19467868FFF7D5FD02E0786801F045
:1021B80069FA002302E0002300E0022318463037C2
:1021C800BD4680BD80B584B000AF78607B681B6871
:1021D8001B6923F440517B68DA687B681B680A43F3
:1021E8001A617B689A687B681B691A437B685B691C
:1021F8001343BB607B681B68DB6823F4B05323F090
:102208000C037A681268B9680B43D3607B681B6853
:102218005B6923F440717B689A697B681B680A4391
:102228005A617B681B682C4A934203D100F0BCFCBE
:10223800F86002E000F0A4FCF860FA6813469B001E
:1022480013449A001A447B685B689B00B2FBF3F363
:10225800224AA2FB03235B091901FA6813469B0073
:1022680013449A001A447B685B689B00B2FBF3F244
:102278001A4BA3FB02035B09642000FB03F3D31A88
:102288001B013233154AA2FB03235B0903F0F00359
:102298001944FA6813469B0013449A001A447B6851
:1022A8005B689B00B2FBF3F20C4BA3FB02035B09D8
:1022B800642000FB03F3D31A1B013233074AA2FB45
:1022C80003235B0903F00F027B681B680A449A60CA
:1022D80000BF1037BD4680BD003801401F85EB5157
:1022E80080B500AF084B1B68074A43F01003136022
:1022F800032001F043F80F2000F008F801F022FC59
:102308000023184680BD00BF0020024080B582B07F
:1023180000AF7860124B1A68124B1B7819464FF4BD
:102328007A73B3FBF1F3B2FBF3F3184601F04DF8FF
:102338000346002B01D001230EE07B680F2B0AD83F
:10234800002279684FF0FF3001F023F8064A7B68D5
:102358001360002300E0012318460837BD4680BDFE
:102368005C000020640000206000002080B400AF02
:10237800054B1B781A46054B1B681344034A136028
:1023880000BFBD4680BC7047640000203C030020AD
:1023980080B400AF024B1B681846BD4680BC70472E
:1023A8003C03002080B584B000AF7860FFF7F0FFF1
:1023B800B8607B68FB60FB68B3F1FF3F05D00A4B50
:1023C8001B781A46FB681344FB6000BFFFF7E0FF69
:1023D8000246BB68D31AFA689A42F7D800BF00BF12
:1023E8001037BD4680BD00BF6400002080B586B0B0
:1023F80000AF78607B68002B01D1012372E27B6813
:102408001B6803F00103002B00F08780924B5B6888
:1024180003F00C03042B0CD08F4B5B6803F00C0308
:10242800082B12D18C4B5B6803F48033B3F5803FE3
:102438000BD1894B1B6803F40033002B6CD07B68ED
:102448005B68002B68D101234CE27B685B68B3F5BD
:10245800803F06D1804B1B687F4A43F4803313606A
:102468002EE07B685B68002B0CD17B4B1B687A4A9B
:1024780023F480331360784B1B68774A23F4802356
:1024880013601DE07B685B68B3F5A02F0CD1724B1D
:102498001B68714A43F4802313606F4B1B686E4AB4
:1024A80043F4803313600BE06B4B1B686A4A23F4D8
:1024B80080331360684B1B68674A23F480231360DA
:1024C8007B685B68002B13D0FFF762FF386108E078
:1024D800FFF75EFF02463B69D31A642B01D9032339
:1024E80000E25D4B1B6803F40033002BF0D014E0CE
:1024F800FFF74EFF386108E0FFF74AFF02463B69E5
:10250800D31A642B01D90323ECE1534B1B6803F462
:102518000033002BF0D100E000BF7B681B6803F09C
:102528000203002B63D04C4B5B6803F00C03002BB9
:102538000BD0494B5B6803F00C03082B1CD1464BAE
:102548005B6803F48033002B16D1434B1B6803F000
:102558000203002B05D07B681B69012B01D00123E6
:10256800C0E13D4B1B6823F0F8027B685B69DB0028
:10257800394913430B603AE07B681B69002B20D074
:10258800364B01221A60FFF703FF386108E0FFF7B6
:10259800FFFE02463B69D31A022B01D90323A1E1AE
:1025A8002D4B1B6803F00203002BF0D02A4B1B684D
:1025B80023F0F8027B685B69DB00274913430B6053
:1025C80015E0264B00221A60FFF7E2FE386108E0AA
:1025D800FFF7DEFE02463B69D31A022B01D903231B
:1025E80080E11D4B1B6803F00203002BF0D17B68D0
:1025F8001B6803F00803002B3AD07B689B69002B0B
:1026080019D0174B01221A60FFF7C2FE386108E0A3
:10261800FFF7BEFE02463B69D31A022B01D90323FA
:1026280060E10D4B5B6A03F00203002BF0D0012040
:1026380000F0CEFA1CE00A4B00221A60FFF7A8FE51
:1026480038610FE0FFF7A4FE02463B69D31A022B5C
:1026580008D9032346E100BF0010024000004242AF
:1026680080044242924B5B6A03F00203002BE9D1DB
:102678007B681B6803F00403002B00F0A68000238E
:10268800FB758B4BDB6903F08053002B0DD1884B16
:10269800DB69874A43F08053D361854BDB6903F0DC
:1026A8008053BB60BB680123FB75824B1B6803F436
:1026B8008073002B18D17F4B1B687E4A43F48073CC
:1026C8001360FFF765FE386108E0FFF761FE024618
:1026D8003B69D31A642B01D9032303E1754B1B68AB
:1026E80003F48073002BF0D07B68DB68012B06D1E4
:1026F8006F4B1B6A6E4A43F0010313622DE07B683F
:10270800DB68002B0CD16A4B1B6A694A23F0010372
:102718001362674B1B6A664A23F0040313621CE0CA
:102728007B68DB68052B0CD1614B1B6A604A43F060
:10273800040313625E4B1B6A5D4A43F00103136294
:102748000BE05B4B1B6A5A4A23F001031362584B98
:102758001B6A574A23F0040313627B68DB68002B6B
:1027680015D0FFF715FE38610AE0FFF711FE0246A3
:102778003B69D31A41F28832934201D90323B1E06D
:102788004B4B1B6A03F00203002BEED014E0FFF75B
:10279800FFFD38610AE0FFF7FBFD02463B69D31AEB
:1027A80041F28832934201D903239BE0404B1B6AD4
:1027B80003F00203002BEED1FB7D012B05D13C4B2E
:1027C800DB693B4A23F08053D3617B68DB69002BCC
:1027D80000F08780364B5B6803F00C03082B61D050
:1027E8007B68DB69022B46D1334B00221A60FFF766
:1027F800CFFD386108E0FFF7CBFD02463B69D31AED
:10280800022B01D903236DE0294B1B6803F00073E9
:10281800002BF0D17B681B6AB3F5803F08D1244BAD
:102828005B6823F400327B689B68214913434B6043
:102838001F4B5B6823F474127B68196A7B685B6AB8
:102848000B431B4913434B601B4B01221A60FFF7D4
:102858009FFD386108E0FFF79BFD02463B69D31AEC
:10286800022B01D903233DE0114B1B6803F00073D1
:10287800002BF0D035E0104B00221A60FFF788FDDE
:10288800386108E0FFF784FD02463B69D31A022B42
:1028980001D9032326E0064B1B6803F00073002BC5
:1028A800F0D11EE07B68DB69012B07D1012319E019
:1028B8000010024000700040600042420B4B5B6811
:1028C800FB60FB6803F480327B681B6A9A4206D17E
:1028D800FB6803F470127B685B6A9A4201D001239B
:1028E80000E0002318461837BD4680BD001002409E
:1028F80080B584B000AF786039607B68002B01D167
:102908000123D0E06A4B1B6803F007033A689A4238
:1029180010D9674B1B6823F0070265493B681343CE
:102928000B60634B1B6803F007033A689A4201D0B7
:102938000123B8E07B681B6803F00203002B20D05A
:102948007B681B6803F00403002B05D0594B5B68B8
:10295800584A43F4E06353607B681B6803F008033C
:10296800002B05D0534B5B68524A43F460535360C5
:10297800504B5B6823F0F0027B689B684D4913431A
:102988004B607B681B6803F00103002B40D07B6819
:102998005B68012B07D1474B1B6803F40033002BFE
:1029A80015D101237FE07B685B68022B07D1414B7F
:1029B8001B6803F00073002B09D1012373E03D4B22
:1029C8001B6803F00203002B01D101236BE0394B94
:1029D8005B6823F003027B685B68364913434B60EE
:1029E800FFF7D6FCF8600AE0FFF7D2FC0246FB6866
:1029F800D31A41F28832934201D9032353E02D4B75
:102A08005B6803F00C027B685B689B009A42EBD121
:102A1800274B1B6803F007033A689A4210D2244BED
:102A28001B6823F0070222493B6813430B60204BC5
:102A38001B6803F007033A689A4201D0012332E089
:102A48007B681B6803F00403002B08D0194B5B68F4
:102A580023F4E0627B68DB68164913434B607B68AC
:102A68001B6803F00803002B09D0124B5B6823F4A2
:102A780060527B681B69DB000E4913434B6000F012
:102A880021F802460B4B5B681B0903F00F030A4948
:102A9800CB5C22FA03F3094A1360094B1B681846FA
:102AA800FFF734FC002318461037BD4680BD00BF31
:102AB8000020024000100240C86800085C000020A6
:102AC8006000002080B487B000AF0023FB600023C3
:102AD800BB6000237B6100237B6000233B611E4BAE
:102AE8005B68FB60FB6803F00C03042B02D0082B27
:102AF80003D027E0194B3B6127E0FB689B0C03F0F0
:102B08000F03174AD35C7B60FB6803F48033002B08
:102B180010D0114B5B685B0C03F00103114AD35CC6
:102B2800BB607B680D4A03FB02F2BB68B2FBF3F3A0
:102B38007B6104E07B680C4A02FB03F37B617B69E1
:102B48003B6102E0054B3B6100BF3B6918461C37FF
:102B5800BD4680BC704700BF0010024000127A00DA
:102B6800E0680008F068000800093D0080B400AF84
:102B7800024B1B681846BD4680BC70475C000020AD
:102B880080B500AFFFF7F2FF0246054B5B681B0AF2
:102B980003F007030349CB5C22FA03F3184680BD10
:102BA80000100240D868000880B500AFFFF7DEFFCC
:102BB8000246054B5B68DB0A03F007030349CB5C5D
:102BC80022FA03F3184680BD00100240D8680008B6
:102BD80080B485B000AF78600A4B1B680A4AA2FB34
:102BE80003235B0A7A6802FB03F3FB6000BFFB6800
:102BF8005A1EFA60002BF9D100BF00BF1437BD463A
:102C080080BC70475C000020D34D621080B48BB04C
:102C180000AF7860396000237B6200233B6279E172
:102C280001227B6A02FA03F3FB613B681B68FA69BD
:102C38001340BB61BA69FB699A4240F068813B68FE
:102C48005B68964A93425ED0944A934275D8944AF8
:102C5800934258D0924A93426FD8924A934252D0A4
:102C6800904A934269D8904A93424CD08E4A9342F4
:102C780063D88E4A934246D08C4A93425DD8122B31
:102C88002AD8122B59D801A252F823F00F2D000888
:102C9800E92C0008FB2C00083D2D0008432D0008F6
:102CA800432D0008432D0008432D0008432D00083C
:102CB800432D0008432D0008432D0008432D00082C
:102CC800432D0008432D0008432D0008432D00081C
:102CD800F12C0008052D0008754A934213D02CE00A
:102CE8003B68DB683B6229E03B68DB6804333B6296
:102CF80024E03B68DB6808333B621FE03B68DB6825
:102D08000C333B621AE03B689B68002B02D104231A
:102D18003B6213E03B689B68012B05D108233B62AB
:102D28007B68FA691A6109E008233B627B68FA69E3
:102D38005A6103E000233B6200E000BFBB69FF2B40
:102D480001D87B6801E07B6804337B61BB69FF2B9A
:102D580002D87B6A9B0002E07B6A083B9B003B61D0
:102D68007B691A680F213B6901FA03F3DB431A40B8
:102D7800396A3B6901FA03F31A437B691A603B68B5
:102D88005B6803F08053002B00F0C180494B9B69BE
:102D9800484A43F001039361464B9B6903F00103E2
:102DA800BB60BB68444A7B6A9B08023352F82330F5
:102DB800FB607B6A03F003039B000F2202FA03F314
:102DC800DB43FA681340FB607B683C4A93421FD0A0
:102DD8007B683B4A934219D07B683A4A934213D0A6
:102DE8007B68394A93420DD07B68384A934207D0B2
:102DF8007B68374A934201D105230AE0062308E09D
:102E0800042306E0032304E0022302E0012300E098
:102E180000237A6A02F0030292009340FA6813438F
:102E2800FB6025497B6A9B080233FA6841F8232036
:102E38003B685B6803F48013002B06D0254B9A6827
:102E48002449BB6913438B6006E0224B9A68BB692F
:102E5800DB43204913408B603B685B6803F4001335
:102E6800002B06D01B4BDA681A49BB691343CB60A9
:102E780006E0184BDA68BB69DB4316491340CB60A0
:102E88003B685B6803F40033002B25D0114B5A686C
:102E98001049BB6913434B6025E000BF00003210A6
:102EA8000000311000002210000021100000121054
:102EB800000011100010024000000140000801400D
:102EC800000C0140001001400014014000180140AE
:102ED800001C014000040140154B5A68BB69DB43E4
:102EE800134913404B603B685B6803F48033002B45
:102EF80006D00F4B1A680E49BB6913430B6006E0F6
:102F08000B4B1A68BB69DB43094913400B607B6AAA
:102F180001337B623B681A687B6A22FA03F3002B51
:102F28007FF47EAE00BF00BF2C37BD4680BC704723
:102F38000004014080B483B000AF78600B467B800A
:102F480013467B707B78002B03D07A887B681A61E4
:102F580003E07B881A047B681A6100BF0C37BD4602
:102F680080BC704780B485B000AF78600B467B802A
:102F78007B68DB68FB607A88FB6813401A04FB688F
:102F8800D9437B880B401A437B681A6100BF14370A
:102F9800BD4680BC704780B485B000AF7860002320
:102FA800FB737B6893F82130DBB2022B08D07B6877
:102FB80004229A637B68002283F82020012320E002
:102FC8007B681B681A687B681B6822F00E021A600F
:102FD8007B681B681A687B681B6822F001021A600C
:102FE8007B681A6C7B68DB6B012101FA02F25A607C
:102FF8007B68012283F821207B68002283F8202047
:10300800FB7B18461437BD4680BC704780B584B03A
:1030180000AF78600023FB737B6893F82130DBB244
:10302800022B05D07B6804229A630123FB73D6E048
:103038007B681B681A687B681B6822F00E021A609E
:103048007B681B681A687B681B6822F001021A609B
:103058007B681B681A46644B9A4258D97B681B6880
:10306800624A93424FD07B681B68614A934248D0BA
:103078007B681B685F4A934240D07B681B685E4A46
:10308800934238D07B681B685C4A934230D07B6897
:103098001B685B4A934228D07B681B68524A93425C
:1030A80020D07B681B68574A934219D07B681B68FD
:1030B800554A934212D07B681B68544A93420AD0FF
:1030C8007B681B68524A934202D14FF480531BE03D
:1030D8004FF4803318E04FF4807315E0102313E0A9
:1030E800012311E04FF080730EE04FF480130BE0E2
:1030F8004FF4803308E04FF4805305E04FF48073B9
:1031080002E0102300E00123424A536057E07B6845
:103118001B68364A93424FD07B681B68344A9342F7
:1031280048D07B681B68334A934240D07B681B6851
:10313800314A934238D07B681B68304A934230D07A
:103148007B681B682E4A934228D07B681B68264AF6
:10315800934220D07B681B682A4A934219D07B6827
:103168001B68294A934212D07B681B68274A9342FE
:103178000AD07B681B68264A934202D14FF48053D9
:103188001BE04FF4803318E04FF4807315E01023F0
:1031980013E0012311E04FF080730EE04FF4801329
:1031A8000BE04FF4803308E04FF4805305E04FF410
:1031B800807302E0102300E00123174A53607B6804
:1031C800012283F821207B68002283F820207B6875
:1031D8005B6B002B03D07B685B6B78689847FB7B45
:1031E80018461037BD4680BD8000024008000240E6
:1031F8001C000240300002404400024058000240D7
:103208006C000240080402401C04024030040240E2
:1032180044040240000402400000024080B485B02B
:1032280000AF78607B6803F00703FB600C4BDB683A
:10323800BB60BA684FF6FF031340BB60FB681A0215
:10324800BB68134343F0BF6343F40033BB60044AD5
:10325800BB68D36000BF1437BD4680BC704700BF51
:1032680000ED00E080B400AF044BDB681B0A03F0FC
:1032780007031846BD4680BC704700BF00ED00E05C
:1032880080B483B000AF03463960FB7197F907300B
:10329800002B0ADB3B68DAB20C4997F907301201B8
:1032A800D2B20B4483F800230AE03B68DAB208493B
:1032B800FB7903F00F03043B1201D2B20B441A76D8
:1032C80000BF0C37BD4680BC704700BF00E100E07E
:1032D80000ED00E080B489B000AFF860B9607A60B2
:1032E800FB6803F00703FB61FB69C3F10703042BC9
:1032F80028BF0423BB61FB690433062B02D9FB6991
:10330800033B00E000237B614FF0FF32BB6902FA08
:1033180003F3DA43BB681A407B699A404FF0FF31E8
:103328007B6901FA03F3D9437B680B4013431846C2
:103338002437BD4680BC704780B582B000AF786046
:103348007B68013BB3F1807F01D301230FE00A4A78
:103358007B68013B53600F214FF0FF30FFF790FF70
:10336800054B00229A60044B07221A600023184676
:103378000837BD4680BD00BF10E000E080B582B0D0
:1033880000AF78607868FFF749FF00BF0837BD468F
:1033980080BD80B586B000AF0346B9607A60FB7324
:1033A80000237B61FFF75EFF78617A68B968786906
:1033B800FFF790FF024697F90F3011461846FFF7BE
:1033C8005FFF00BF1837BD4680BD80B582B000AF33
:1033D80078607868FFF7B0FF034618460837BD469F
:1033E80080BD000080B500AFFEF77AFF00F030F82E
:1033F80000F07AF800F0C2F84FF0FF331F220F49AF
:103408000F48FEF753F94FF0FF331E220D490C48C1
:10341800FEF74CF94FF0FF331F220B490848FEF71F
:1034280045F900F08BF901210848FFF79BFD4FF49F
:10343800FA70FEF7B7FF00BFF3E700BF086800089F
:10344800D80500202868000848680008000C0140DA
:1034580080B590B000AF07F1180328220021184664
:10346800FDF7A9FE3B1D00221A605A609A60DA60D7
:103478001A610123BB614FF48033FB6100233B6277
:103488000123BB6202237B634FF48033BB634FF499
:10349800E013FB6307F118031846FEF7A7FF03467E
:1034A800002B01D000F019F80F237B600223BB60CA
:1034B8000023FB604FF480633B6100237B613B1D6D
:1034C80002211846FFF714FA0346002B01D000F03A
:1034D80004F800BF4037BD4680BD80B400AF72B667
:1034E80000BF00BFFDE7000080B588B000AF07F15E
:1034F800100300221A605A609A60DA601D4B9B69BB
:103508001C4A43F0100393611A4B9B6903F01003A4
:10351800FB60FB68174B9B69164A43F008039361ED
:10352800144B9B6903F00803BB60BB68114B9B6994
:10353800104A43F0040393610E4B9B6903F00403A4
:103548007B607B68012201210B48FFF7F3FC012314
:103558003B6101237B610023BB610323FB6107F10E
:10356800100319460448FFF751FB00BF2037BD463A
:1035780080BD00BF00100240000C014080B500AFC4
:10358800164B174A1A60154B4FF4E1325A60134B29
:1035980000229A60114B0022DA60104B00221A6157
:1035A8000E4B0C225A610D4B00229A610B4B0022E4
:1035B800DA610A48FEF72AF80346002B01D0FFF724
:1035C8008CFF084B1B881A46074B134401221946E7
:1035D8000248FEF7F6F800BF80BD00BFD8050020FE
:1035E80000380140400400204003002080B588B026
:1035F80000AF786007F1100300221A605A609A60E1
:10360800DA607B681B681C4A934231D11B4B9B696B
:103618001A4A43F480439361184B9B6903F480432F
:10362800FB60FB68154B9B69144A43F004039361E4
:10363800124B9B6903F00403BB60BB684FF4007333
:103648003B6102237B610323FB6107F110031946E9
:103658000B48FFF7DBFA4FF480633B6100237B6183
:103668000023BB6107F1100319460548FFF7CEFA9E
:1036780000BF2037BD4680BD003801400010024021
:103688000008014080B584B000AF78607B681B6893
:10369800244A934241D1244B1B88FE2B08D9FF2290
:1036A8002249234801F01AFA1F4BFF221A8005E02D
:1036B8001D4B1B8801339AB21B4B1A801A4B1B886F
:1036C800013B1B4AD35C0A2B0BD1174B1B881A46AC
:1036D800174B00219954174B01221A70124B0022E4
:1036E8001A80114B1B881A46114B134401221946A4
:1036F8001148FEF766F80346FB73FB7B002B0CD0E2
:10370800094B00221A80084B1B881A46084B1344A1
:10371800012219460848FEF754F800BF1037BD4685
:1037280080BD00BF00380140400400204103002054
:103738004003002042040020D8050020B0B5A2B004
:1037480000AF614B1B78002B00F0BB805F4B7B67A1
:103758007B6F07F174025E49184601F013FAF867A7
:10376800FB6F002B00F0A780F86F00F007FB034603
:10377800DAB2584B1A70574B1B78002B00F0838035
:10378800544B1B780A2B7ED80023C7F8843059E0A5
:103798000023C7F8803049E07B6F07F174024C4979
:1037A800184601F0EFF9F867FB6F002B17D0F86F98
:1037B80000F0E1FA02460B4610461946FCF7A0FF56
:1037C80001464448D7F8842013469B0013445B0005
:1037D800D7F8802013449B000344596021E03E4BF6
:1037E80007F154041D460FCD0FC495E80F0007C418
:1037F800238002341B0C237007F154031846FDF78D
:10380800DDF803469AB207F154014FF0FF3333480D
:10381800FDF74CFF2C4B00221A70314B00221A8006
:103828004FE0D7F880300133C7F88030294B1B7838
:103838001A46D7F880309342AEDBD7F8843001338C
:10384800C7F88430234B1B781A46D7F88430934244
:103858009EDB204800F04AF8B867B86FFCF7F8FE1E
:1038680002460B4638461F4901F016F93B461846F2
:10387800FDF7A4F803469AB239464FF0FF331748CC
:10388800FDF714FF17E0184B07F134041D460FCD60
:103898000FC495E80F0007C4237007F134031846D6
:1038A800FDF78CF803469AB207F134014FF0FF3365
:1038B8000A48FDF7FBFE044B00221A70084B002251
:1038C8001A808837BD46B0BD42040020400300205E
:1038D800686800084404002080680008D8050020B3
:1038E800400400206C680008A068000890B5F1B09A
:1038F80000AF07F5E073A3F5DE73186007F5E07312
:10390800A3F5DE731B681B78C7F8A431D7F8A43178
:10391800012B06D107F5E073A3F5DE731B685B681E
:10392800D3E0D7F8A431022B28D107F5E073A3F52B
:10393800DE731B685A6807F5E073A3F5DE731B682E
:103948001B6B19461046FCF76BFC03461C4607F533
:10395800E073A3F5DE731B689A6807F5E073A3F5B7
:10396800DE731B68DB6A19461046FCF759FC0346F0
:1039780019462046FCF718FF0346A6E04FF000035F
:10398800C7F8BC31D7F8A431DBB2013BDAB207F58E
:10399800E073A3F5DA731A700023C7F8B8318BE027
:1039A8000023C7F8B4310123C7F8B03149E0002338
:1039B800C7F8AC310023C7F8A83132E0D7F8A821FE
:1039C800D7F8B8319A4226D007F5E073A3F5DE732D
:1039D8001968D7F8B02113469B0013445B00D7F849
:1039E800A82113449B000B44596807F5E073A3F51D
:1039F800DA70D7F8B42113469B0013445B00D7F85C
:103A0800AC2113449B0003445960D7F8AC3101330F
:103A1800C7F8AC3100E000BFD7F8A8310133C7F8C8
:103A2800A831D7F8A821D7F8A4319A42C6DBD7F82D
:103A3800B4310133C7F8B431D7F8B0310133C7F81E
:103A4800B031D7F8B021D7F8A4319A42AFDBD7F814
:103A5800B83103F00103002B02D14FF07E5300E090
:103A68001C4BC7F8A03107F5E073A3F5DE731A689D
:103A7800D7F8B8319B0013445B68D7F8A0111846F3
:103A8800FCF7CEFB03461C4607F10C031846FFF76C
:103A98002DFF034619462046FCF7C2FB034619468C
:103AA800D7F8BC01FCF782FE0346C7F8BC31D7F84B
:103AB800B8310133C7F8B831D7F8B821D7F8A431ED
:103AC8009A42FFF66DAFD7F8BC31184607F5E27792
:103AD800BD4690BD000080BF80B400AF00BFFDE7C9
:103AE80080B400AF00BFFDE780B400AF00BFFDE7C2
:103AF80080B400AF00BFFDE780B400AF00BFFDE7B2
:103B080080B400AF00BFBD4680BC704780B400AF32
:103B180000BFBD4680BC704780B400AF00BFBD4643
:103B280080BC704780B500AFFEF720FC00BF80BDA9
:103B380080B500AF0248FDF769FE00BF80BD00BF39
:103B4800D805002080B485B000AF154B9B69144A96
:103B580043F001039361124B9B6903F00103BB60BF
:103B6800BB680F4BDB690E4A43F08053D3610C4BA3
:103B7800DB6903F080537B607B680A4B5B68FB6002
:103B8800FB6823F0E063FB60FB6843F00073FB60B5
:103B9800044AFB68536000BF1437BD4680BC7047B9
:103BA800001002400000014080B586B000AF786088
:103BB800144A154BD31A7B617B693B61134B1B6815
:103BC800002B02D1114B124A1A60104B1A687B68FD
:103BD80013443A699A4207D200F0D8FF03460C22F0
:103BE8001A604FF0FF3309E0084B1B68FB60074B76
:103BF8001A687B681344054A1360FB68184618372F
:103C0800BD4680BD00000120000400002006002001
:103C18002806002080B400AF01231846BD4680BCAA
:103C2800704780B582B000AF7860396000F0AEFFB1
:103C3800034616221A604FF0FF3318460837BD4670
:103C480080BD80B582B000AF78604FF0FF317868F2
:103C5800FFF7E7FF00BFFDE780B586B000AFF8606B
:103C6800B9607A6000237B610AE0AFF30080014607
:103C7800BB685A1CBA60CAB21A707B6901337B618F
:103C88007A697B689A42F0DB7B6818461837BD462C
:103C980080BD80B586B000AFF860B9607A60002357
:103CA8007B6109E0BB685A1CBA601B781846AFF301
:103CB80000807B6901337B617A697B689A42F1DB1A
:103CC8007B6818461837BD4680BD80B483B000AF06
:103CD80078604FF0FF3318460C37BD4680BC7047FC
:103CE80080B483B000AF786039603B684FF400520D
:103CF8005A60002318460C37BD4680BC704780B414
:103D080083B000AF7860012318460C37BD4680BCED
:103D1800704780B485B000AFF860B9607A6000235E
:103D280018461437BD4680BC70470000FDF768FC94
:103D38000B480C490C4A002302E0D458C450043301
:103D4800C4188C42F9D3094A094C002301E01360D6
:103D58000432A242FBD3FDF77DFAFFF743FB70471D
:103D680000000020D4010020B86C0008D401002015
:103D780024060020FEE7002100F0FEBD0A220021F3
:103D880000F080BE2DE9F0410F46904601F0D0FDCD
:103D980004460D46B8F1000F11D0C7F30A53C3F11A
:103DA8006B03002B0BDD00241B0503F17F5505F584
:103DB800401522462B46FCF709FE04460D462046D0
:103DC8002946BDE8F08100002DE9F04F9FB0179219
:103DD80000220C461A924FF0000A4FF0000B0A46D8
:103DE8000590199211782B2948D036D80D2930D84A
:103DF800082930D8002939D000220E92199D2A7836
:103E0800302A40F0B0806A7802F0DF02582A6CD17C
:103E180002930E9B8F4A01931AAB009305981BAB34
:103E280019A900F035FF10F00F06044605D0062E3C
:103E380026D10023013519950E93179B002B40F0CE
:103E480082850E9BBBB150460BF100411FB0BDE807
:103E5800F08F2029D0D10132C3E72D29CCD10121FF
:103E68000E91511C19915278002AC7D1179B1994A9
:103E7800002B40F0668550465946E7E70021EFE7FA
:103E88001A9A3AB135211CA801F042FE1A990598F0
:103E980001F022FA013E1B9A042E06D8DFE806F04C
:103EA80014031D201400DDE91CABE10548BF4BF0ED
:103EB800004B2BF000431B0D1B05002BBDD100F060
:103EC80065FE22230360B8E702F23342DDE91CA352
:103ED80023F4801343EA025BE7E7DFF87CB1E4E709
:103EE8006FF0004B4FF0FF3ADFE7199B5A1C19920D
:103EF8005B78302BF9D0002B9FD0012300270A22B2
:103F0800B9460893199B0B970C9319980578A5F156
:103F18003003D9B2092928D90122504900F0F8FD07
:103F2800002832D000202A4603464D460A90652ACA
:103F380001D0452A14D11DB9089A024396D000250C
:103F4800199C621C199262782B2A7AD02D2A7ED06D
:103F58004FF0000CA2F13001092940F28580199434
:103F68004FF00008A5E00023C8E7B9F1080FD8BF53
:103F78000B9900F10100D6BF02FB013302FB0737A2
:103F88000B9309F101091990BFE7199B5A1C199263
:103F98005A78B9F1000F3BD04D460A90A2F1300390
:103FA800092B12D90123C2E7199B01305A1C199217
:103FB8005A78302AF8D0A2F13103082B00F2C884CD
:103FC8000A9000200546199B0C93303A00F1010332
:103FD80018D02E464FF00A0E0A9919440A91711CFE
:103FE800A1EB050C634515DC20EAE0702B18082BC3
:103FF80005F1010505441ADC0A230B9903FB01238B
:104008000B930023199A1846511C19915278C5E749
:104018004846CEE7082E05DC0B9E0EFB06F60B96EF
:104028000E46DCE71029D8BF0EFB07F7F8E70F2B81
:10403800DCBF0A2303FB0727E3E700230A930123D6
:104048007AE74FF0000CA21C1992A27882E74FF091
:10405800010CF8E76C6A00080000F07FF2680008BD
:10406800199A511C19915278302AF9D0A2F13101CC
:1040780008293FF675AF4FF00A08303A0992199AA5
:104088000F92199A561C19965278A2F1300EBEF169
:10409800090F39D90F9944F61F68761A082E03DCE0
:1040A80009998845A8BF8846BCF1000F01D0C8F11E
:1040B8000008002D4ED1089908437FF4BEAE002BAE
:1040C8007FF4D4AE692A28D025DC492A25D04E2A87
:1040D8007FF4CCAE994919A800F0FCFF00283FF402
:1040E800C5AE199B1B78282B2ED195491CAA19A857
:1040F80001F004F8052827D11D9BDDF870A043F0D6
:10410800FF4B4BF4E00B98E6099908FB0121A1F15C
:1041180030020992B5E76E2ADAE78A4919A800F051
:10412800D9FF00283FF4A2AE199B8749013B19A883
:10413800199300F0CFFF10B9199B013319934FF071
:10414800000ADFF808B278E6814800F033FD8246BD
:104158008B4672E60A9BB9F1000F08BFA946A8EB87
:104168000303102D0B982C460993A8BF1024FCF7C5
:104178004DFA092D82468B4611DC099B002B3FF432
:104188005CAE099B76DD162B5DDC7249524601EB6D
:10419800C3015B46D1E90001FCF718FCD7E76D4B7A
:1041A80003EBC40353E91223FCF710FC824638469C
:1041B8008B46FCF72BFA02460B4650465946FCF74D
:1041C800E9F80F2D82468B46D7DD099B2C1B1C4432
:1041D800002C40F3938014F00F030AD05D49524637
:1041E80001EBC301D1E900015B46FCF7EFFB824616
:1041F8008B4634F00F0473D0B4F59A7F49DD002460
:10420800A046A1460B9422234FF0000A059ADFF836
:104218003CB113600B9B002B3FF40FAE1A99059825
:1042280001F05AF84946059801F056F841460598B4
:1042380001F052F80B99059801F04EF821460598BF
:1042480001F04AF8F9E5099AC5F125039342BCDB68
:10425800404CC5F10F0504EBC5015246D1E90001F8
:104268005B46FCF7B3FB099B5D1B04EBC504D4E973
:10427800002391E71633A8DB0A9B5046A3EB0808F6
:10428800344B594603EBC808D8E90023FCF7C8FCAF
:104298005DE70023504659461E462F4F2411012C36
:1042A80021DC0BB182468B462B49ABF1547B01EBE9
:1042B800C6015246D1E900015B46FCF787FB234B58
:1042C8000A460B40254982468B4298D8A1F58011B1
:1042D8008B4286BF4FF0FF3ADFF884B002F1547B7F
:1042E8000023089376E0E20704D5D7E90023FCF71A
:1042F8006DFB0123013664100837D0E7F0D0644223
:1043080014F00F020AD0134B504603EBC203594670
:10431800D3E90023FCF784FC82468B462411DFD0C6
:104328001F2C1FDD0024A046A1460B942223059ACA
:104338004FF0000A4FF0000B13606BE7FD680008B0
:10434800586A0008F4680008F76800080000F07F61
:10435800576A0008E06B0008B86B00080000A07CF2
:10436800FFFFEF7F14F0100318BF6A23504608932D
:1043780059460023774EE70704D5D6E90023FCF712
:1043880025FB0123641006F10806F4D10BB182461F
:104398008B46089BB3B1CBF30A52C2F16B03002BD7
:1043A80059460FDD1F2B58DD342BD8BF4FF0FF3394
:1043B8004FF0000ACFBF4FF05C7BC2F14B02934035
:1043C80003EA010B0022002350465946FCF766FD1C
:1043D8000028A7D10B9B4A4600930C992B460598B9
:1043E80000F0E2FF0B9000283FF409AF0024099A7F
:1043F8000A9B002AA3EB0803A8BF0023A046129338
:1044080022EAE27316930B9B0598596800F024FF83
:10441800814600283FF4F7AE0B9B0C301A6903F174
:104428000C010232920000F0B7FB1CAB01931BABEE
:10443800009352465B460598CDE90CAB01F0E0FAD3
:104448001A9000283FF4DFAE0121059801F042F8E8
:10445800804648B94FF00008D5E64FF0FF3202FA1F
:1044680003F303EA0A0AADE71B9D1C9A002DABBFB4
:10447800129B169BEF185E1B089BA8BF169EA5EB08
:1044880003051544344B05F1FF35B8BF129F9D4213
:10449800C2F1360250DA5B1B1F2B4FF00101A2EB71
:1044A80003023DDC01FA03F3139300231093BD18B4
:1044B800089BAF4216441E443B46A8BF2B46B34256
:1044C800A8BF3346002BC2BFED1AF61AFF1A129B7B
:1044D800002B16DD41461A46059801F0B3F88046D0
:1044E8000028B7D001461A9A059801F009F80A90F1
:1044F80000283FF488AE1A99059800F0EDFE0A9B53
:104508001A93002D1DDC099B002B27DD4946169ABE
:10451800059801F097F8814600BB4FF0000972E654
:10452800C5F17F4505F57F0505F57B45E23501FABF
:1045380005F310931391BAE7002310930123139303
:10454800B5E72A461A99059801F0D6F81A90002876
:10455800D9D158E6806A000802FCFFFF002E07DD6B
:1045680049463246059801F0C7F881460028D4D05C
:10457800002F08DD41463A46059801F0BDF880460F
:1045880000283FF440AE4A461A99059801F03CF9D4
:10459800044600283FF437AEC36841460F93002312
:1045A800C36001F015F900283DDA0F9B53EA0A03AE
:1045B80063D1CBF31303002B5FD12BF000431B0D0A
:1045C8001B05B3F1D66F58D9636913B92369012B59
:1045D80053DD21460122059801F08EF84146044634
:1045E80001F0F6F8002848DD2BF00043089A1B0D6F
:1045F8001B05002A62D0B3F1D66F5FD8B3F15C7F98
:104608007FF694AE50465946A34B0022FCF7DEF9DC
:10461800A24B82460B408B46002B7FF4FFAD222332
:10462800059A1360FAE5CDF828B065D10F9ACBF357
:1046380013035AB39A4A93422BD1089B514603B3AA
:104648005A46964B1340B3F1D46F4FF0FF321BD844
:104658001B0DC3F16B0302FA03F3994219D1914B75
:104668000A9A9A4202D101313FF4CDAD4FF0000AC7
:104678008A4B0A9A1A4002F5801B089B002BC1D16D
:10468800CCE54FF0FF33E8E71346E6E753EA0A03C1
:10469800AAD0109BDBB10A9A1342EED00F9B50466A
:1046A8005946089ABBB1FFF76DFB02460B46DDE998
:1046B8000C01FBF76FFE82468B46DEE7A3F58013FD
:1046C8006FEA135B4FF0FF3A6FEA0B5BD5E7139B7A
:1046D80013EA0A0FE1E7FFF755FB02460B46DDE94F
:1046E8000C01FBF755FE0022002382468B46FCF79F
:1046F800D5FB0028C1D019E64146204601F0D8F97B
:1047080000224FF0804306460F46FCF7DBFB0028EB
:104718006DD00F9B002B78D1BAF1000F56D10A9BB0
:10472800C3F31303002B58D10022304639465E4BA1
:10473800FCF7BEFB002857D13046394600225B4BB8
:10474800FCF744F906460F4607F10043069607931F
:10475800DDE90623514DCDE910230A9B1D40544B3A
:104768009D4240F0AB800A9B5046A3F1547B5946CA
:1047780001F0DEF8DDE90623FCF728F952465B462E
:10478800FBF708FE0B4645494A4A194091428246C2
:1047980042D90D9A434B9A4203D10C9B01333FF403
:1047A80032AD4FF0FF3ADFF8FCB01A99059800F0E7
:1047B80093FD4946059800F08FFD4146059800F0A5
:1047C8008BFD2146059800F087FD1CE6BAF1010F24
:1047D80003D10A9B002B3FF4A9AD0022364B0026DB
:1047E800CDE90623304FB3E70026304FACE730461B
:1047F80039462E4B0022FCF7E9F80F9B06460F4678
:10480800002BA1D0CDE90667A2E70022264B164669
:104818001F46CDE906239BE703F1547B089BCDF89F
:1048280028B0002BC1D12BF000431B0D1B059D4266
:10483800BBD130463946FCF783FBFBF733FF024612
:104848000B4630463946FBF7A3FD0B460246CBF331
:104858001306CDE90C230F9B46EA0A061E436AD0CD
:1048680009A3D3E90023FCF723FB00287FF4D6AC87
:1048780007A3D3E90023DDE90C01FCF737FB002887
:1048880093D0CBE4AFF300809535A094FFFFDF3FD2
:1048980035E5AF350000E03F000050390000F07FFB
:1048A800FFFF0F00FFFFEF7F0000F03F0000E03F39
:1048B8000000E07FFFFF9F7C0000F0BF089B23B350
:1048C800B5F1D46F21D828A3D3E90023304639465F
:1048D800FCF7F8FAA0B139463046FCF711FB01287D
:1048E80038BF0120FBF792FE0F9B06460F46FBB927
:1048F80001F1004314901593DDE91423CDE9102349
:10490800119B03F1D6635B1B1193DDE90C01DDE913
:1049180010AB01F00DF802460B4650465946FCF71D
:1049280055F8DDE90C23FBF735FD82468B4675E724
:10493800CDE91467E0E70EA3D3E90023FCF7B8FA42
:104948009DE700230E93199B179A1360FFF779BA16
:10495800652A3FF472AB452A3FF46FAB0123FFF79A
:10496800AABB00BFAFF300800000C0FFFFFFDF411C
:104978009535A094FFFFCF3F0A4601460248034BF6
:104988000068FFF721BA00BF0C0000206800002073
:10499800242B2DE9F0478646904601D8012B06D1F5
:1049A80000F0F4F8162303600020BDE8F0870D46F8
:1049B80033482A4615F8014B065D16F00806F8D16B
:1049C8002D2C10D101262C78951C33F0100215D10E
:1049D800302C0DD12A7802F0DF02582A08D16C78E1
:1049E800023510230AE02B2C04BF2C78951CECE729
:1049F800002BF6D1302C14BF0A230823002206F11D
:104A0800004C0CF1FF3CBCFBF3F9104603FB19CA40
:104A1800A4F13007092F0FD83C46A3421BDD571CD1
:104A280007D0814514D301D1A24511DB012200FB37
:104A3800034015F8014BEBE7A4F14107192F01D802
:104A4800373CEAE7A4F16107192F04D8573CE4E79B
:104A58004FF0FF32EDE7531C08D122236046CEF811
:104A68000030B8F1000FA0D0691E06E006B1404240
:104A7800B8F1000F99D0002AF6D1C8F8001094E7D1
:104A8800A96A000813460A46014602480068FFF76B
:104A98007FBF00BF0C0000200EB46FF0004110B5BE
:104AA80000249DB01FAB029006900791049109481D
:104AB800094953F8042B0591006802A901931B9436
:104AC80001F0D2F8029B1C701DB0BDE8104003B085
:104AD800704700BF0C0000200802FFFF884210B595
:104AE80001EB020402D98442234607D8431EA1429F
:104AF80008D011F8012B03F8012FF8E7014602440A
:104B08008A4200D110BD13F8014D02F8014DF7E7B4
:104B180010B56AB10139841810F8012B11F8013F5A
:104B28009A4203D1A04201D0002AF5D1D01A10BD73
:104B38001046FCE7F0B5044608B9146844B10F46BE
:104B4800204614F8015B17F8016B1EB965B91560AA
:104B5800002005E0B542F6D1002BF0D114600370B7
:104B6800F0BD1C460CE01DB90E46274614F8013B63
:104B780016F8015BAB42F6D1002BF2D000233B7054
:104B88001460EDE70123FFF7D5BF0000014B18685B
:104B9800704700BF0C0000200A44914200F1FF3327
:104BA80000D1704710B511F8014B914203F8014F3D
:104BB800F9D110BD00200149704700BF0000F87FFF
:104BC80003692DE9F043B3EB611F00F114044FEAC8
:104BD800611246DD11F01F0104EB830604EB820528
:104BE8000CD1294600F11007B14235D39B1A9B001E
:104BF800EA1E964238BF0023234415E0A14654F824
:104C08002270C1F12008CF4005F1040E7645F44624
:104C180016D89A1A9200043A0135AE4238BF0022DB
:104C2800A318A75007B10433A342A3EB040208BF9B
:104C380000234FEAA202026108BF4361BDE8F08386
:104C4800DCF800C00CFA08FC4CEA070749F8047BBA
:104C58005EF8047BCF40D9E751F804CB47F804CF7E
:104C6800C2E72346E0E7A0F13003092B02D8203839
:104C7800C0B27047A0F16103052B01D84738F7E7A8
:104C8800A0F14103052B01D82738F1E70020704730
:104C98002DE9F04F8A46904685B002930B68019043
:104CA8009C1CA14614F8010B3028FAD0A9EB030389
:104CB800A3F1020BFFF7D7FF0546002868D10122B0
:104CC80048469F49FFF724FF0746002867D199F80F
:104CD80001002646FFF7C7FF002862D02346187850
:104CE8009946302803F10103F9D0FFF7BCFFB0FA69
:104CF80080F54FF0010B6D094A46164630780132AF
:104D0800FFF7B1FF0028F8D1012230468C49FFF7A0
:104D1800FFFE00283FD144B9741C2246164630785D
:104D28000132FFF7A0FF0028F8D1A41BA7003378B1
:104D380003F0DF03502B3ED173782B2B33D02D2B70
:104D480034D00024711C0878FFF78DFF431EDBB2B6
:104D5800182B30D8A0F1100211F8010FFFF783FFCC
:104D680000F1FF3C5FFA8CFCBCF1180F4FF00A030E
:104D78001ED904B152421744CAF80010EDB1BBF174
:104D8800000F0CBF06250025284605B0BDE8F08FAA
:104D980000252C46B0E7002CC7D12746C7E74E466A
:104DA8002F460125C3E70024B11CCCE70124FBE70B
:104DB80003FB0200CEE73146DEE72946A6EB0903EE
:104DC800013B072B0ADC019800F046FA044640B97B
:104DD8000246E4215B4B5C4801F0E0F901315B10CD
:104DE800EFE7002300F1140A55469B46B14537D337
:104DF80045F804BBA5EB0A05AD102561584600F03F
:104E08001DFB6D01D8F800602D1AB54254DDAD1BAD
:104E18002946204600F09FFE814678B14FF00109EF
:104E28006B1E59115AF8211003F01F0209FA02F2F9
:104E38000A4203D04B4536DC4FF00209294620468A
:104E4800FFF7BEFE2F44D8F80830BB4242DA2146AD
:104E5800019800F041FA00230E9AA325136093E706
:104E680016F8012D2E2A12D0202B04D145F804BBA8
:104E78004FF0000B5B4630780393FFF7F4FE039B7B
:104E880000F00F0098404BEA000B0433AEE7B14541
:104E9800EAD8012230462A490393FFF739FE039BDB
:104EA8000028E1D1A2E72046A91E00F054FE002800
:104EB800C2D04FF00309C1E709DA751B21462A461B
:104EC800019800F019FC04467F1B00F1140A4FF00A
:104ED8000009B8E7D8F80450BD426FDDED1BAE42BB
:104EE80034DCD8F80C30022B22D0032B24D0012B31
:104EF80015D1AE4213D1012E0BD1D8F80430029A45
:104F08006225136001232361CAF800300E9B1C60E0
:104F18003AE72046711E00F01EFE0028EDD121461A
:104F2800019800F0D9F900230E9A502513602BE759
:104F38000F9B002BF3D1E0E70F9B002BDDD1EEE7B1
:104F4800F268000808690008196900086F1EB9F1BD
:104F5800000F30D127B13946204600F0FCFD8146CC
:104F680001232946761B02257A115AF8222007F0D8
:104F78001F07BB401342204618BF49F00209FFF73C
:104F88001FFED8F80470B9F1000F47D0D8F80C30DC
:104F9800022B15D0032B17D0012B09D119F0020FC2
:104FA80006D0DAF8003049EA030919F0010F0ED1EA
:104FB80045F0100532E04FF00109D1E70125E2E79D
:104FC8000F9BC3F101030F930F9B002BF0D04FF001
:104FD800000CD4F810B004F114034FEA8B0A03EB69
:104FE8008B01184653F8042BB2F1FF3F1BD0013256
:104FF8000260022D04F114033CD1D8F80020013AD4
:10500800B24209D10122711153F8213006F01F066E
:1050180002FA06F61E423AD145F020050E9B1C60A6
:10502800029B1F60B0E6994243F804CCD9D8A36824
:105038009B4517DB61680198013100F00DF9814645
:1050480018B902468421194BC5E6226904F10C01FE
:10505800023292000C30FFF79FFD2146019800F0C4
:105068003BF94C4623695A1C2261012204EB830355
:105078005A61BEE722695A450BDD01212046FFF738
:105088009FFDD8F808300137BB42FFF6E0AE012596
:10509800C2E716F01F06FAD0534453F8040C00F088
:1050A800CDF9C6F12006B042E7DBF0E70869000851
:1050B800C2F10802920070B5C2F120064368046884
:1050C80003FA06F52C43D340046040F8043F8842B5
:1050D800F4D370BD30B50368013311F8014B14B92E
:1050E8000360012030BD13F8012BA2F14105192DF1
:1050F80098BF2032A242F0D00020F3E72DE9F04F0C
:1051080000250B6882465E1102EB860613F01F032A
:1051180018BF0436371F9046B9463C46AB4687B0A1
:105128000168019346F8045C02954A784B1C039386
:1051380042B3104605910492FFF795FD002851D11E
:10514800049A0599202A18D8029B9B4513DD4C45E3
:1051580006D2072D04DC2A4649462046FFF7A8FF59
:10516800444552D90023A4F1040944F8043C1D46DF
:105178004C46CDF808B00399D7E7292A57D1023110
:10518800CAF80010BBF1000F51D04C4506D2072DCC
:1051980004DC2A4649462046FFF78AFF444536D9AB
:1051A8002346A8F1040253F8041B9F4242F8041F47
:1051B800F9D23B1B23F0030304330134033EB4420A
:1051C80088BF04230022434443F8042B9F42FBD2A8
:1051D8003B681BB9474528D101233B60052007B030
:1051E800BDE8F08F0135082D0BF1010B06DD4445B4
:1051F800C1D90023012544F8043C043C226800F08E
:105208000F0040EA02102060B5E70825B3E7019BCC
:10521800002BDDD04FF0FF32C3F12003DA4056F8FF
:10522800043C134046F8043CD2E7043FD0E704208E
:10523800D5E782B001B901A942B14BB113780B602F
:105248001278101E18BF012002B070471046FBE705
:105258006FF00100F8E7000070B5C66904460D4616
:1052680076B9102000F0CCFF0246E06120B96B212E
:10527800174B184800F092FFC0E901660660C66047
:10528800E669F36883B1E369DB6853F82500B8B9C8
:10529800012101FA05F6721D2046920000F09CFFDC
:1052A80060B1C0E901560EE021220421204600F039
:1052B80093FFE369F060DB68002BE4D1002070BD48
:1052C800026843F825200023C0E90333F7E700BF4D
:1052D800796900089069000870B5C66905460C46EA
:1052E80076B9102000F08CFF0246E86120B98F21C2
:1052F800084B094800F052FFC0E901660660C66025
:105308003CB1EB696268DB6853F82210216043F80E
:10531800224070BD79690008906900082DE9F041C4
:1053280007460C461E4600200D6901F1140CDCF8F6
:105338000030013099B202FB01611E0C0B0C02FB1C
:10534800063389B201EB034185424FEA13464CF814
:10535800041BECDC0EB3A368AB4219DC6168384669
:105368000131FFF779FF804628B90246BA210C4B74
:105378000C4800F013FF226904F10C01023292007C
:105388000C30FFF709FC21463846FFF7A5FF4446D5
:1053980004EB850301355E6125612046BDE8F08197
:1053A80008690008906900082DE9F84315460922A4
:1053B8001F4608330C4693FBF2F3064601220021F0
:1053C8009A4209DB3046FFF747FF40B90246D3212E
:1053D800184B194800F0E2FE52000131F0E7089B33
:1053E800092D43614FF00103036116DD04F109093A
:1053F800C8462C4418F8013B01460A223046303B87
:10540800FFF78CFFA045F5D1A5F108044C442D1BEE
:105418006319BB4204DBBDE8F88309250A34F6E7C3
:1054280014F8013B01460A223046303BFFF776FF6D
:10543800EEE700BF08690008906900080346B0F568
:10544800803F3ABF030410200020B3F1807F3CBFA7
:105458001B020830B3F1805F3CBF1B010430B3F17D
:10546800804F3CBF9B000230002B05DB13F0804FC0
:1054780000F1010008BF202070470368024613F0BE
:1054880007000BD0D90721D4980749BF5B089B08B0
:10549800012013605CBF02201360704799B209B9FC
:1054A80010201B0CD9B209B908301B0A190704BF10
:1054B8001B090430990704BF9B080230D90703D49D
:1054C8005B0800F1010003D01360704700207047AB
:1054D8002020704710B50C460121FFF7BDFE02469B
:1054E80028B940F24511044B044800F057FE012347
:1054F8004461036110BD00BF086900089069000895
:105508002DE9F04F17460A693B6989469A42A2BFBE
:105518003B460F4699463D69D9F810A0BB687968A3
:1055280005EB0A06B34285B0B8BF0131FFF794FE18
:1055380030B902464FF4B171404B414800F02EFE9D
:1055480000F114042346002204EB860E734520D391
:1055580007F1140809F1140108EB850501EB8A032A
:105568000293EB1B153B23F0030304331537BD42AD
:1055780038BF04230193029B03918B420CD8002E61
:1055880003DD5EF8043D002B55D0066105B0BDE88B
:10559800F08F43F8042BD9E7B1F800A0BAF1000F57
:1055A8001FD0C446A14600275CF8042BD9F8003068
:1055B8001FFA82FB9BB20AFB0B333B44D9F80070FD
:1055C800120C3F0C0AFB027202EB13429BB243EA35
:1055D800024365454FEA124749F8043BE4D8019B6A
:1055E800E750039B0431B3F80290B9F1000F20D0C3
:1055F8004746A4464FF0000A2368B7F800B0BCF845
:1056080002209BB209FB0B22524443EA02434CF8A6
:10561800043B57F8043B4FEA134ABCF80030BD423C
:1056280009FB0A3303EB12434FEA134AE5D8019A00
:10563800A35004349FE7013EA1E700BF08690008B2
:10564800906900082DE9F843154612F00302074651
:105658000E4607D0254C013A002354F82220FFF7C4
:105668005DFE0646AD103DD0FC697CB9102000F007
:10567800C7FD0246F86128B940F2B3111C4B1D481A
:1056880000F08CFDC0E901440460C460D7F81C80B8
:10569800D8F808404CB940F271213846FFF71AFF94
:1056A80000230446C8F8080003604FF00009EB0720
:1056B8000AD5314622463846FFF722FF8046314652
:1056C8003846FFF709FE46466D100BD0206838B9FA
:1056D800224621463846FFF713FF2060C0F80090A5
:1056E8000446E4E73046BDE8F88300BFAC6B000829
:1056F80079690008906900082DE9F0470C460746CB
:1057080091462369496803EB6218A3684FEA621A55
:1057180008F10106B3420BDB3846FFF79DFD05464D
:1057280048B902464FF4EF71274B284800F036FD80
:1057380001315B00EEE7002300F1140100F11002D3
:105748001846534533DB20692AEAEA7A04F1140340
:1057580019F01F0901EB8A0103EB800C2BD08A4654
:105768000022C9F1200E186800FA09F010434AF81F
:10577800040B53F8042B9C4522FA0EF2F3D8ACEB39
:105788000403153B23F00303043304F115006045BB
:1057980088BF0423CA500AB108F10206013E384600
:1057A80021462E61FFF798FD2846BDE8F08742F8AC
:1057B800040F0133C5E7043953F8042B9C4541F81D
:1057C800042FF9D8EAE700BF0869000890690008C3
:1057D80003460A69006930B5801A0ED114331431B2
:1057E80003EB820401EB820154F8045D51F8042DA7
:1057F800954203D005D24FF0FF3030BDA342F3D31A
:10580800FBE70120F9E700002DE9F74F8946064636
:10581800114648461446FFF7DBFF051E12D12946FC
:105828003046FFF719FD024628B940F237213E4BB2
:105838003E4800F0B3FC0123C0E90435104603B02C
:10584800BDE8F08FBCBF4B46A1463046D9F80410DE
:10585800BABF1C4601250025FFF7FEFC024618B911
:1058680040F24521304BE3E700F1140BD9F81070F2
:1058780009F11003C5604FF0000C09F11405D94671
:10588800266904F1140E05EB87080EEB86060193D2
:10589800019B5EF8040B53F804AF81B201931FFA21
:1058A8008AF35B1A000C6344C0EB1A4000EB2340F8
:1058B8009BB243EA004376454FEA204C49F8043B43
:1058C800E6D8331B153B23F0030315340433A642F3
:1058D80038BF04231D445B441E462C4644450ED362
:1058E80008F10301491B21F00301033DA84538BF16
:1058F80000210B4453F8041D99B117619EE7E64651
:1059080054F8041B1FFA81FCF444080C714400EBA2
:105918002C4089B241EA00414FEA204C46F8041B6A
:10592800DCE7013FE6E700BF086900089069000866
:105938000E4B0B40A3F15073002B08DC5B42B3F114
:10594800A07F4FEA235204DA4FF4002313410022C8
:1059580008E0A2F114031E2BD6BF4FF0004201222B
:10596800DA40002319461046704700BF0000F07F58
:105978000269F8B500F1140606EB820252F8044CED
:105988001E4F2046FFF75AFD0346C0F120000A2BA0
:10599800A2F10405086012DCAE422CBF002252F8C6
:1059A800082CC3F10B0C153324FA0CFE04FA03F38C
:1059B80022FA0CF24EEA07011A431046F8BDAE422D
:1059C80036BFA2F10805002252F8082C0B3B12D072
:1059D800C3F1200722FA07F19C400C43B54244F07A
:1059E8007F5194BF002455F8044C9A40FC4041F480
:1059F80040112243E1E744EA0701DEE70000F03FF7
:105A08002DE97343012190469946089EFFF724FC2F
:105A1800044630B9024640F20F31234B234800F0C8
:105A2800BDFBC9F30A55C9F313030DB143F4801341
:105A38000193B8F1000324D068460093FFF71DFDD9
:105A4800DDE90012D8B1C0F1200302FA03F30B43D9
:105A5800C24063610192019B002B0CBF012202220C
:105A6800A3612261ADB1A5F2334505443560C0F1AB
:105A78003500099B1860204602B0BDE8708361615B
:105A8800E9E701A8FFF7F9FC019B012263612030D7
:105A9800E7E7A0F2324004EB820330601869FFF7B1
:105AA800CDFCC0EB4210E4E70869000890690008E3
:105AB8002DE9F04F85B0CDE9001002A9FFF758FF96
:105AC8008B4606460F46009803A9FFF751FF0D467F
